{
  "contractName": "MyLunch",
  "abi": [
    {
      "constant": true,
      "inputs": [],
      "name": "votingFoodList",
      "outputs": [
        {
          "name": "owner",
          "type": "address"
        }
      ],
      "payable": false,
      "stateMutability": "view",
      "type": "function"
    },
    {
      "inputs": [
        {
          "name": "foodNameList",
          "type": "bytes32[]"
        }
      ],
      "payable": false,
      "stateMutability": "nonpayable",
      "type": "constructor"
    },
    {
      "constant": true,
      "inputs": [],
      "name": "getFoodListCount",
      "outputs": [
        {
          "name": "",
          "type": "uint256"
        }
      ],
      "payable": false,
      "stateMutability": "view",
      "type": "function"
    },
    {
      "constant": true,
      "inputs": [
        {
          "name": "index",
          "type": "uint256"
        }
      ],
      "name": "getFoodDetailByIndex",
      "outputs": [
        {
          "name": "foodName",
          "type": "bytes32"
        },
        {
          "name": "voteCount",
          "type": "uint256"
        }
      ],
      "payable": false,
      "stateMutability": "view",
      "type": "function"
    },
    {
      "constant": false,
      "inputs": [
        {
          "name": "foodName",
          "type": "bytes32"
        },
        {
          "name": "point",
          "type": "uint256"
        }
      ],
      "name": "voteFoodByName",
      "outputs": [],
      "payable": false,
      "stateMutability": "nonpayable",
      "type": "function"
    },
    {
      "constant": false,
      "inputs": [],
      "name": "closeVoting",
      "outputs": [],
      "payable": false,
      "stateMutability": "nonpayable",
      "type": "function"
    }
  ],
  "bytecode": "0x608060405234801561001057600080fd5b506040516104d23803806104d2833981018060405281019080805182019291905050506000336000800160006101000a81548173ffffffffffffffffffffffffffffffffffffffff021916908373ffffffffffffffffffffffffffffffffffffffff160217905550600090505b815181101561011157600060010160408051908101604052806000815260200184848151811015156100ab57fe5b9060200190602002015160001916815250908060018154018082558091505090600182039060005260206000209060020201600090919290919091506000820151816000015560208201518160010190600019169055505050808060010191505061007d565b50506103b0806101226000396000f30060806040526004361061006d576000357c0100000000000000000000000000000000000000000000000000000000900463ffffffff16806324eb76451461007257806392172b6b146100c9578063ab4cbf63146100f4578063c5c875fa14610144578063c631b2921461017f575b600080fd5b34801561007e57600080fd5b50610087610196565b604051808273ffffffffffffffffffffffffffffffffffffffff1673ffffffffffffffffffffffffffffffffffffffff16815260200191505060405180910390f35b3480156100d557600080fd5b506100de6101c2565b6040518082815260200191505060405180910390f35b34801561010057600080fd5b5061011f600480360381019080803590602001909291905050506101d1565b6040518083600019166000191681526020018281526020019250505060405180910390f35b34801561015057600080fd5b5061017d600480360381019080803560001916906020019092919080359060200190929190505050610230565b005b34801561018b57600080fd5b506101946102a4565b005b60008060000160009054906101000a900473ffffffffffffffffffffffffffffffffffffffff16905081565b60008060010180549050905090565b6000806000806000600101858154811015156101e957fe5b906000526020600020906002020160010154915060006001018581548110151561020f57fe5b90600052602060002090600202016000015490508181935093505050915091565b60008060008092505b6102416101c2565b83101561029d57610251836101d1565b915091508160001916856000191614156102905783810160006001018481548110151561027a57fe5b9060005260206000209060020201600001819055505b8280600101935050610239565b5050505050565b6000800160009054906101000a900473ffffffffffffffffffffffffffffffffffffffff1673ffffffffffffffffffffffffffffffffffffffff163373ffffffffffffffffffffffffffffffffffffffff1614151561036b576040517f08c379a00000000000000000000000000000000000000000000000000000000081526004018080602001828103825260108152602001807f596f75277265206e6f74206f776e65720000000000000000000000000000000081525060200191505060405180910390fd5b3373ffffffffffffffffffffffffffffffffffffffff16ff00a165627a7a723058204524727919175273fad1455a08725f67ac300e2492b9b149d733e94080e2c8d80029",
  "source": "pragma solidity ^0.4.23;\n\ncontract MyLunch {\n  struct food {\n    uint voteCount;\n    bytes32 name;\n  }\n\n  struct votingFoodListStruct {\n    address owner;\n    food[] foodList;\n  }\n\n  votingFoodListStruct public votingFoodList;\n\n  constructor(bytes32[] foodNameList) public {\n    votingFoodList.owner = msg.sender;\n    for (uint index = 0; index < foodNameList.length; index++) {\n      votingFoodList.foodList.push(food({\n        name: foodNameList[index],\n        voteCount: 0\n      }));\n    }\n  }\n\n  function getFoodListCount() public view returns (uint) {\n    return votingFoodList.foodList.length;\n  }\n\n  function getFoodDetailByIndex(uint index) public view returns (bytes32 foodName, uint voteCount) {\n    bytes32 name = votingFoodList.foodList[index].name;\n    uint count = votingFoodList.foodList[index].voteCount;\n    return (name,count);\n  }\n\n  function voteFoodByName(bytes32 foodName,uint point) public {\n    for (uint i = 0; i < getFoodListCount(); i++ ) {\n      (bytes32 name,uint count) = getFoodDetailByIndex(i);\n      if (foodName == name) {\n        votingFoodList.foodList[i].voteCount = count + point;\n      }\n    }\n  }\n\n  function closeVoting() public {\n    require(msg.sender == votingFoodList.owner,\"You're not owner\");\n    selfdestruct(msg.sender);\n  }\n\n}",
  "sourcePath": "/Users/vitaya/Documents/choose-my-lunch/contracts/MyLunch.sol",
  "compiler": {
    "name": "solc",
    "version": "0.4.24+commit.e67f0147.Emscripten.clang"
  },
  "schemaVersion": "2.0.1",
  "updatedAt": "2018-10-08T00:50:16.425Z"
}